:020000040000FA
:06000000C1EF06F0120042
:020006001200E6
:06000800F6EF01F012000A
:0600180084EF02F012006B
:02001E000100DF
:0C0020009E0D0000600000002E0000009B
:04002C00D9CFE6FF43
:10003000E1CFD9FF040EE126100EDE6E270EDD6E35
:10004000020EDB6A030EDB6AD950FD0FE96EFF0E6C
:10005000DA20EA6EEE50ED1012E1030EDB50E76E8F
:10006000FB0EDBCFE9FFFC0EDBCFEAFFE750E92612
:10007000000EEA22300EEF6E030EDB2A5DD0050E75
:10008000F36E020EDBCFF4FFF350F45C55E2FD0E8D
:10009000DBCF14F0FE0EDBCF15F0DECF16F0DDCF98
:1000A00017F01650145C1750155832E3FD0EDBCFD5
:1000B00008F0FE0EDBCF09F0DECF0DF0DDCF0EF045
:1000C0009BEC06F008C014F009C015F00A0E0D6E86
:1000D0000E6A14C008F015C009F09BEC06F004C0CD
:1000E00014F005C015F0300E1426000E1522030E74
:1000F000DB50E76EFB0EDBCFE9FFFC0EDBCFEAFF48
:10010000E750E926000EEA2214C0EFFF030EDB2AB7
:100110000A0E146E156A14C00DF015C00EF0DECF75
:1001200008F0DDCF09F09BEC06F008C0DEFF09C047
:10013000DDFF020EDB2AA3D7030EDB50E76EFB0EBA
:10014000DBCFE9FFFC0EDBCFEAFFE750E926000E2C
:10015000EA22EF6A040EE15C02E2E16AE552E16E36
:10016000E552E7CFD9FF1200D9CFE6FFE1CFD9FFA3
:10017000E652DF6AFC0EDB50DF5C0FE2DF50E76E19
:10018000FD0EDBCFE9FFFE0EDBCFEAFFE750E926ED
:10019000000EEA22EF6ADF2AEDD7E552E552E7CFFB
:1001A000D9FF1200D9CFE6FFE1CFD9FF0C0EE1262F
:1001B000080EDB6A090EDB6A0A0EDB6A0B0EDB6ACD
:1001C000040EF36E0B0EDBCFF4FFF350F45C5FE232
:1001D0000A0EDB50E76EFD0EDBCFE9FFFE0EDBCF34
:1001E000EAFFE750E926000EEA22EF502C0833E040
:1001F000190EF36E0A0EDBCFF4FFF350F45C2BE222
:100200000A0EDB50E76EFD0EDBCFE9FFFE0EDBCF03
:10021000EAFFE750E926000EEA22EF50D00F166EF3
:10022000176A0A0E086E096A080EDBCF0DF0090E78
:10023000DBCF0EF035EC05F006501624146E075097
:100240001720156E080E14C0DBFF090E15C0DBFF6A
:100250000A0EDB2ABDD7D9CF14F0DACF15F00B0E7A
:10026000DB50020D1450F324E96E1550F420EA6EB1
:10027000080EDBCFEEFF090EDBCFEDFF080EDB6AC9
:10028000090EDB6A0A0EDB2A0B0EDB2A99D7DECFBA
:1002900060F0DDCF61F0020EDBCF62F0030EDBCF4A
:1002A00063F0040EDBCF64F0050EDBCF65F0060EC5
:1002B000DBCF66F0070EDBCF67F00C0EE15C02E2ED
:1002C000E16AE552E16EE552E7CFD9FF1200D58C25
:1002D000D59AD586D76AE10ED66EF294F28AF18469
:1002E000D58E1200D6CFB1F0D59E1200B1C0D6FF88
:1002F000D58E1200B19EB198B19AB192B36AE10E57
:10030000B26EA192A082B1801200B896AC8AAC8481
:10031000AB88948E948C190EAF6E9D8AAB8E1200B2
:100320009D9AAB9EAB981200D9CFE6FFE1CFD9FFE3
:10033000ACA2FED7FE0EDB50AD6EE552E7CFD9FF83
:100340001200D9CFE6FFE1CFD9FF020EE126FD0E64
:10035000DBCFDEFFDBCFDDFFDECFF6FFDDCFF7FF4C
:100360000800F5500EE0DFCFF6FFDF2A010EDBCFED
:10037000F7FF01E3DB2A0800F550E66ED5DFE55212
:10038000EBD7020EE15C02E2E16AE552E16EE55272
:10039000E7CFD9FF1200D9CFE6FFE1CFD9FFE65270
:1003A000DF6ADF50E76EFD0EDBCFE9FFFE0EDBCF2D
:1003B000EAFFE750E926000EEA22EF5012E0DF5094
:1003C000E76EFD0EDBCFE9FFFE0EDBCFEAFFE75065
:1003D000E926000EEA22EF50E66EA6DFE552DF2A9C
:1003E000E0D7E552E552E7CFD9FF1200DACFE4FFBC
:1003F000E2CFDAFFE9CFE4FFEACFE4FFE652F2A46E
:100400007BD0E10ED66EF29400018151831902E196
:100410008251841926E1C80E865D000E875906E3D5
:10042000866B876B882B000E892303D0862B000EEA
:100430008723836B846B8551030801E2856BF00E83
:100440008A140001B46F00018551EA6A710FE96EE8
:10045000000EEA22EF500001B4118A6E0001852BD4
:1004600003D0832B000E84230001B25100018A19AE
:1004700004E10001B35100018B193BE18A6B8B6BE6
:100480006A2B000E6B236A510001955D00016B51D0
:10049000000196590AE200016A6B6B6B8D5103E112
:1004A000010E8D6F01D08D6B8C6B00018C51030898
:1004B00001E28C6B0F0E8A140001B46F00018D51A4
:1004C0000BE18C51EA6A790FE96E000EEA22EF50D7
:1004D0000001B4118A6E0AD08C51EA6A7D0FE96E70
:1004E000000EEA22EF500001B4118A6E00018C2B3D
:1004F00003D08A2B000E8B23E552E5CFEAFFE5CF30
:10050000E9FFE5CFDAFF1100D8CFE4FFE0CFE4FF49
:10051000E46EDACFE4FFE2CFDAFFE9CFE4FFEACF1F
:10052000E4FFF6CFE4FFF7CFE4FFF5CFE4FFF3CF2E
:10053000E4FFF4CFE4FFFACFE4FF00EE00F0140E86
:10054000E80403E3EECFE4FFFBD700EE14F0100E57
:10055000E80403E3EECFE4FFFBD7E6529EAA51D0B6
:10056000AECFB0F00001B051530A3BE0030A25E0E2
:100570000A0A0BE0190A01E039D0100EE66E0D0EE2
:10058000E66EDFDEE552E5523BD000016C51EA6ACF
:10059000970FE96E000EEA22EF6A6C6B970EE66E1B
:1005A000000EE66EFFDDE552E552ED0EE66E0C0E36
:1005B000E66EC7DEE552E55223D0D5AE09D092DE15
:1005C000DA0EE66E0C0EE66EBCDEE552E55208D0A1
:1005D000C60EE66E0C0EE66EB4DEE552E55286DE21
:1005E0000FD064C088F065C089F00AD000016C515A
:1005F000EA6A970FE96E000EEA22B0C0EFFF6C2B9B
:100600009E9AE55200EE23F0100EE80403E3E5CFD6
:10061000EDFFFBD700EE13F0140EE80403E3E5CF83
:10062000EDFFFBD7E5CFFAFFE5CFF4FFE5CFF3FF12
:10063000E5CFF5FFE5CFF7FFE5CFF6FFE5CFEAFF22
:10064000E5CFE9FFE5CFDAFFE550E5CFE0FFE5CF05
:10065000D8FF1000936A8A6A070EB46E060EC16E48
:100660000C0EE66E970EE66E000EE66E7DDDE55230
:10067000E552E5524ADE100EE66E0D0EE66E61DEC4
:10068000E552E552D08E9F9A9F98F184F28CF28EBB
:1006900000016451651101E1FBD7050ED880665554
:1006A000000E675532E2280E665D000E67592DE296
:1006B000146A156A7A0E166E440E176E66C008F03C
:1006C00067C009F060EC04F007C018F008C019F02A
:1006D00009C01AF00AC01BF018C00CF019C00DF0C8
:1006E0001AC00EF01BC00FF014C007F015C008F0C0
:1006F00016C009F017C00AF075EC04F053EC05F0D1
:1007000008C081F009C082F003D0640E816F826B53
:1007100081C008F082C009F060EC04F007C014F05A
:1007200008C015F009C016F00AC017F01C6A400E88
:100730001D6E9C0E1E6E440E1F6E60C008F061C0E0
:1007400009F060EC04F007C020F008C021F009C0F7
:1007500022F00AC023F020C00CF021C00DF022C00E
:100760000EF023C00FF01CC007F01DC008F01EC023
:1007700009F01FC00AF075EC04F007C018F008C0BB
:1007800019F009C01AF00AC01BF018C00CF019C00B
:100790000DF01AC00EF01BC00FF014C007F015C00A
:1007A00008F016C009F017C00AF0C8EC04F053ECCA
:1007B00005F008C0B2F009C0B3F0C80E086E096AAF
:1007C00062C00DF063C00EF035EC05F006C018F005
:1007D00007C019F018C008F019C009F060EC04F067
:1007E00007C014F008C015F009C016F00AC017F0D1
:1007F0000C6A0D6AA00E0E6E3F0E0F6E14C007F04D
:1008000015C008F016C009F017C00AF075EC04F026
:1008100053EC05F008C095F009C096F058DD0001D2
:100820006451885D655189592BE35CDD0001885175
:10083000681902E18951691915E08E0EE66E000E05
:10084000E66E88C0E6FF89C0E6FF16EC00F0E552D0
:10085000E552E552E5528E0EE66E000EE66E9BDD29
:10086000E552E552AE0EE66E0C0EE66E6ADDE5521E
:10087000E552F29CF29E8A6A0001886B896B1ED059
:100880008851685D8951695919E288C068F089C04A
:1008900069F08E0EE66E000EE66E68C0E6FF69C077
:1008A000E6FF16EC00F0E552E552E552E5528E0EF9
:1008B000E66E000EE66E6FDDE552E552B0D712002F
:1008C000019E08D0019E09AE05D0086C091EE86A99
:1008D0000922018E09C003F008C002F0136A126AEF
:1008E0008E0E046E056A9EEF05F0016ADAEC05F0E3
:1008F000F2EC05F001B682EF05F001A205D001BAD5
:1009000082EF05F089EF05F001BA95EF05F001A03F
:1009100005D001B882EF05F095EF05F001B889EF39
:1009200005F0056A7F0E0A24046EE86A05220F505E
:10093000045EE86A055A1A0E106E0A6A126A136A91
:10094000026A036A0C50075E0D50085A0E50095A8D
:10095000000E0A5A09E70C5007260D5008220E50C7
:100960000922000E0A2201D0128AD89007360836D2
:1009700009360A36D8901236133602360336102E50
:10098000E1D7095008100710D8A4128A9EEF05F08D
:10099000016ADAEC05F0F2EC05F001B682EF05F041
:1009A00001A205D001B882EF05F089EF05F001AA98
:1009B00005D001B082EF05F089EF05F001B002D05B
:1009C00001A802D095EF05F0056A0F500A24046EC5
:1009D000E86A05227E0E045EE86A055A126A136A06
:1009E000026A036A0E500902F4CF03F0F3CF02F05B
:1009F0000D500902F3501326F4500222000E032278
:100A00000E500802F3501326F4500222000E032267
:100A10000C500902F3501226F4501322000E022249
:100A200003220D500802F3501226F4501322000E38
:100A3000022203220E500702F3501226F450132212
:100A4000000E022203220C500802F4501226000E5F
:100A50001322022203220D500702F4501226000E28
:100A60001322022203229EEF05F008C012F0085064
:100A70000D02F4CF07F0F3CF06F009500E02F4CFC9
:100A800009F0F3CF08F00D02F3500726F4500822C6
:100A9000E86A092212500E02F3500726F450082289
:100AA000E86A0922000C016ADAEC05F001B65DEF94
:100AB00005F001A20ED001B405D07F0E096EFF0E25
:100AC000086E1FD0800E096E086A1BD0096A086A7A
:100AD00018D001B0FBD78F0E0A60EDD77E0E0A64E6
:100AE000F5D78E0E0A5C05E0D890093208320A2A42
:100AF000F8D701A406D0086C091EE86A092209AEDD
:100B0000E5D712007F0E0A6EFF0E096E086E076EA3
:100B100012007F0E01BEFF0E0A6E02D07F0E0A6E1B
:100B2000800E096E086A076AF3D701AE04D0800E02
:100B30000A6E096AF7D70A6A096AF4D703500210E5
:100B400013101210F8E005BEF0D703BE0CD004500D
:100B50000510EBE0D8901236133602360336040641
:100B6000D8A00506F2D70550D4E10428D2E012AE91
:100B700011D07F0E121402E113A00CD0132AE86AE0
:100B80000222032207E3D880033202321332042AFE
:100B90000428BFE00450C9E013C007F002C008F009
:100BA0000334096E04300A6E09320A9E01BE0A8EB1
:100BB00088EF05F009360A3602E30184017E06E17A
:100BC00001800A6A096A086A076A12000A2803E0B3
:100BD000D88009321200D890093202E10182120055
:100BE000018612000E360F3602E3018C017E06E10B
:100BF00001880F6A0E6A0D6A0C6A12000F2803E062
:100C0000D8800E321200D8900E32EAE1018A12002A
:100C10001E0EF66E000EF76E000EF86E0001090053
:100C2000F550BA6F0900F550BB6F03E1BA6701D008
:100C30003DD00900F550B56F0900F550B66F0900B9
:100C4000F550B76F09000900F550E96E0900F5503D
:100C5000EA6E090009000900F550B86F0900F55067
:100C6000B96F09000900F6CFBCF0F7CFBDF0F8CF9F
:100C7000BEF0B5C0F6FFB6C0F7FFB7C0F8FF000181
:100C8000B85302E1B95307E00900F550EE6EB8071A
:100C9000F8E2B907F9D7BCC0F6FFBDC0F7FFBEC088
:0E0CA000F8FF0001BA07000EBB5BBFD71200C1
:020CAE002074B0
:100CB00075726E732E2E2E6A6F622066696E69736E
:100CC0006865642E0A0077696E64696E67207265D4
:100CD00073756D65642E2E2E0A0077696E64696ED9
:100CE00067207061757365642E2E2E0A006461742E
:100CF000612072656365697665642E2077696E642C
:100D0000696E6720737461727465642E2E2E0A00FA
:100D1000436F6E6E656374696F6E20746F207769C0
:100D20006E6465722069732073756363657373669F
:050D3000756C2E0A00A5
:0A0D3600056A046A100EE76ED890FB
:100D400008360936043605360D50045C0E50055839
:100D500005E30D50045E0E50055A082AE72EF0D721
:020D600012007F
:0E0D6200000EF36E00EE00F0080E01D8120035
:100D7000EA6002D0EE6AFCD7F350E9601200EE6A36
:020D8000FCD79E
:0E0D820013EE00F023EE00F0F86A019C08EC7E
:0E0D900006F003EC00F02AEC03F0FBD7120093
:020D9E00000053
:100DA000000000000000000000000005060A090124
:100DB00004020801080204104020801080204064D2
:0C0DC00000000000000000000000000027
:020000040030CA
:0100000020DF
:010001000CF2
:0100020031CC
:010003001EDE
:010005008179
:010006008178
:010008000FE8
:01000900C036
:01000A000FE6
:01000B00E014
:01000C000FE4
:01000D0040B2
:00000001FF
